{
  "_format": "hh3-artifact-1",
  "contractName": "JobPortal",
  "sourceName": "contracts/JobPortal.sol",
  "abi": [
    {
      "inputs": [],
      "name": "AlreadyApplied",
      "type": "error"
    },
    {
      "inputs": [],
      "name": "EmptyResumeCID",
      "type": "error"
    },
    {
      "inputs": [],
      "name": "InvalidRole",
      "type": "error"
    },
    {
      "inputs": [],
      "name": "InvalidStatus",
      "type": "error"
    },
    {
      "inputs": [],
      "name": "JobClosedAlready",
      "type": "error"
    },
    {
      "inputs": [],
      "name": "JobIsClosed",
      "type": "error"
    },
    {
      "inputs": [],
      "name": "JobNotFound",
      "type": "error"
    },
    {
      "inputs": [],
      "name": "NoApplication",
      "type": "error"
    },
    {
      "inputs": [],
      "name": "NotAuthorized",
      "type": "error"
    },
    {
      "anonymous": false,
      "inputs": [
        {
          "indexed": true,
          "internalType": "uint256",
          "name": "jobId",
          "type": "uint256"
        },
        {
          "indexed": true,
          "internalType": "address",
          "name": "applicant",
          "type": "address"
        },
        {
          "indexed": false,
          "internalType": "enum JobPortal.ApplicationStatus",
          "name": "status",
          "type": "uint8"
        }
      ],
      "name": "ApplicationStatusChanged",
      "type": "event"
    },
    {
      "anonymous": false,
      "inputs": [
        {
          "indexed": true,
          "internalType": "uint256",
          "name": "jobId",
          "type": "uint256"
        },
        {
          "indexed": true,
          "internalType": "address",
          "name": "applicant",
          "type": "address"
        },
        {
          "indexed": false,
          "internalType": "string",
          "name": "resumeCID",
          "type": "string"
        }
      ],
      "name": "Applied",
      "type": "event"
    },
    {
      "anonymous": false,
      "inputs": [
        {
          "indexed": true,
          "internalType": "uint256",
          "name": "jobId",
          "type": "uint256"
        },
        {
          "indexed": true,
          "internalType": "address",
          "name": "employer",
          "type": "address"
        }
      ],
      "name": "JobClosed",
      "type": "event"
    },
    {
      "anonymous": false,
      "inputs": [
        {
          "indexed": true,
          "internalType": "uint256",
          "name": "jobId",
          "type": "uint256"
        },
        {
          "indexed": true,
          "internalType": "address",
          "name": "employer",
          "type": "address"
        }
      ],
      "name": "JobCreated",
      "type": "event"
    },
    {
      "anonymous": false,
      "inputs": [
        {
          "indexed": true,
          "internalType": "address",
          "name": "user",
          "type": "address"
        },
        {
          "indexed": false,
          "internalType": "enum JobPortal.Role",
          "name": "role",
          "type": "uint8"
        }
      ],
      "name": "RoleRegistered",
      "type": "event"
    },
    {
      "inputs": [
        {
          "internalType": "uint256",
          "name": "jobId",
          "type": "uint256"
        },
        {
          "internalType": "string",
          "name": "resumeCID",
          "type": "string"
        }
      ],
      "name": "applyToJob",
      "outputs": [],
      "stateMutability": "nonpayable",
      "type": "function"
    },
    {
      "inputs": [
        {
          "internalType": "uint256",
          "name": "jobId",
          "type": "uint256"
        }
      ],
      "name": "closeJob",
      "outputs": [],
      "stateMutability": "nonpayable",
      "type": "function"
    },
    {
      "inputs": [
        {
          "internalType": "string",
          "name": "title",
          "type": "string"
        },
        {
          "internalType": "string",
          "name": "company",
          "type": "string"
        },
        {
          "internalType": "string",
          "name": "location",
          "type": "string"
        },
        {
          "internalType": "string",
          "name": "jobType",
          "type": "string"
        },
        {
          "internalType": "string",
          "name": "descriptionCID",
          "type": "string"
        }
      ],
      "name": "createJob",
      "outputs": [
        {
          "internalType": "uint256",
          "name": "jobId",
          "type": "uint256"
        }
      ],
      "stateMutability": "nonpayable",
      "type": "function"
    },
    {
      "inputs": [
        {
          "internalType": "uint256",
          "name": "jobId",
          "type": "uint256"
        },
        {
          "internalType": "address",
          "name": "applicant",
          "type": "address"
        }
      ],
      "name": "getApplication",
      "outputs": [
        {
          "components": [
            {
              "internalType": "string",
              "name": "resumeCID",
              "type": "string"
            },
            {
              "internalType": "uint64",
              "name": "appliedAt",
              "type": "uint64"
            },
            {
              "internalType": "enum JobPortal.ApplicationStatus",
              "name": "status",
              "type": "uint8"
            }
          ],
          "internalType": "struct JobPortal.Application",
          "name": "",
          "type": "tuple"
        }
      ],
      "stateMutability": "view",
      "type": "function"
    },
    {
      "inputs": [
        {
          "internalType": "uint256",
          "name": "jobId",
          "type": "uint256"
        }
      ],
      "name": "getJob",
      "outputs": [
        {
          "components": [
            {
              "internalType": "address",
              "name": "employer",
              "type": "address"
            },
            {
              "internalType": "string",
              "name": "title",
              "type": "string"
            },
            {
              "internalType": "string",
              "name": "company",
              "type": "string"
            },
            {
              "internalType": "string",
              "name": "location",
              "type": "string"
            },
            {
              "internalType": "string",
              "name": "jobType",
              "type": "string"
            },
            {
              "internalType": "string",
              "name": "descriptionCID",
              "type": "string"
            },
            {
              "internalType": "uint64",
              "name": "createdAt",
              "type": "uint64"
            },
            {
              "internalType": "bool",
              "name": "isOpen",
              "type": "bool"
            }
          ],
          "internalType": "struct JobPortal.Job",
          "name": "",
          "type": "tuple"
        }
      ],
      "stateMutability": "view",
      "type": "function"
    },
    {
      "inputs": [
        {
          "internalType": "uint256",
          "name": "jobId",
          "type": "uint256"
        }
      ],
      "name": "getJobApplicants",
      "outputs": [
        {
          "internalType": "address[]",
          "name": "",
          "type": "address[]"
        }
      ],
      "stateMutability": "view",
      "type": "function"
    },
    {
      "inputs": [],
      "name": "getJobsCount",
      "outputs": [
        {
          "internalType": "uint256",
          "name": "",
          "type": "uint256"
        }
      ],
      "stateMutability": "view",
      "type": "function"
    },
    {
      "inputs": [
        {
          "internalType": "address",
          "name": "applicant",
          "type": "address"
        }
      ],
      "name": "getMyAppliedJobs",
      "outputs": [
        {
          "internalType": "uint256[]",
          "name": "",
          "type": "uint256[]"
        }
      ],
      "stateMutability": "view",
      "type": "function"
    },
    {
      "inputs": [
        {
          "internalType": "address",
          "name": "user",
          "type": "address"
        }
      ],
      "name": "getRole",
      "outputs": [
        {
          "internalType": "enum JobPortal.Role",
          "name": "",
          "type": "uint8"
        }
      ],
      "stateMutability": "view",
      "type": "function"
    },
    {
      "inputs": [
        {
          "internalType": "enum JobPortal.Role",
          "name": "role",
          "type": "uint8"
        }
      ],
      "name": "register",
      "outputs": [],
      "stateMutability": "nonpayable",
      "type": "function"
    },
    {
      "inputs": [
        {
          "internalType": "uint256",
          "name": "jobId",
          "type": "uint256"
        },
        {
          "internalType": "address",
          "name": "applicant",
          "type": "address"
        },
        {
          "internalType": "enum JobPortal.ApplicationStatus",
          "name": "status",
          "type": "uint8"
        }
      ],
      "name": "setApplicationStatus",
      "outputs": [],
      "stateMutability": "nonpayable",
      "type": "function"
    }
  ],
  "bytecode": "0x608060405234801561000f575f80fd5b506126368061001d5f395ff3fe608060405234801561000f575f80fd5b50600436106100a7575f3560e01c806361d689fa1161006f57806361d689fa14610173578063980770311461018f5780639a25c9a5146101bf578063bf22c457146101ef578063c8b4d8831461021f578063d07e9f901461023b576100a7565b806304f801a0146100ab5780630d979824146100db5780631e01abca1461010b5780633efaea1f146101275780634427673314610143575b5f80fd5b6100c560048036038101906100c091906119a1565b610259565b6040516100d29190611ab3565b60405180910390f35b6100f560048036038101906100f09190611b34565b610335565b6040516101029190611c5a565b60405180910390f35b610125600480360381019061012091906119a1565b61071e565b005b610141600480360381019061013c9190611c73565b61095c565b005b61015d60048036038101906101589190611cfa565b610e0b565b60405161016a9190611d98565b60405180910390f35b61018d60048036038101906101889190611dd4565b610e5c565b005b6101a960048036038101906101a49190611dff565b610f6d565b6040516101b69190611f7c565b60405180910390f35b6101d960048036038101906101d49190611cfa565b61110f565b6040516101e69190612053565b60405180910390f35b610209600480360381019061020491906119a1565b6111a2565b6040516102169190612156565b60405180910390f35b61023960048036038101906102349190612199565b61158d565b005b6102436118bb565b6040516102509190611c5a565b60405180910390f35b606081600180549050811061029a576040517fc0a8563100000000000000000000000000000000000000000000000000000000815260040160405180910390fd5b60035f8481526020019081526020015f2080548060200260200160405190810160405280929190818152602001828054801561032857602002820191905f5260205f20905b815f9054906101000a900473ffffffffffffffffffffffffffffffffffffffff1673ffffffffffffffffffffffffffffffffffffffff16815260200190600101908083116102df575b5050505050915050919050565b5f600280600381111561034b5761034a611d25565b5b5f803373ffffffffffffffffffffffffffffffffffffffff1673ffffffffffffffffffffffffffffffffffffffff1681526020019081526020015f205f9054906101000a900460ff1660038111156103a6576103a5611d25565b5b146103dd576040517fea8e4eb500000000000000000000000000000000000000000000000000000000815260040160405180910390fd5b5f6040518061010001604052803373ffffffffffffffffffffffffffffffffffffffff1681526020018e8e8080601f0160208091040260200160405190810160405280939291908181526020018383808284375f81840152601f19601f8201169050808301925050505050505081526020018c8c8080601f0160208091040260200160405190810160405280939291908181526020018383808284375f81840152601f19601f8201169050808301925050505050505081526020018a8a8080601f0160208091040260200160405190810160405280939291908181526020018383808284375f81840152601f19601f82011690508083019250505050505050815260200188888080601f0160208091040260200160405190810160405280939291908181526020018383808284375f81840152601f19601f82011690508083019250505050505050815260200186868080601f0160208091040260200160405190810160405280939291908181526020018383808284375f81840152601f19601f8201169050808301925050505050505081526020014267ffffffffffffffff168152602001600115158152509050600181908060018154018082558091505060019003905f5260205f2090600702015f909190919091505f820151815f015f6101000a81548173ffffffffffffffffffffffffffffffffffffffff021916908373ffffffffffffffffffffffffffffffffffffffff160217905550602082015181600101908161060e9190612410565b5060408201518160020190816106249190612410565b50606082015181600301908161063a9190612410565b5060808201518160040190816106509190612410565b5060a08201518160050190816106669190612410565b5060c0820151816006015f6101000a81548167ffffffffffffffff021916908367ffffffffffffffff16021790555060e08201518160060160086101000a81548160ff0219169083151502179055505050600180805490506106c8919061250c565b92503373ffffffffffffffffffffffffffffffffffffffff16837fa1614c481428bb94175e0a6935486d35e5bbd86c664a34ddaabc98a48465fb8c60405160405180910390a350509a9950505050505050505050565b600280600381111561073357610732611d25565b5b5f803373ffffffffffffffffffffffffffffffffffffffff1673ffffffffffffffffffffffffffffffffffffffff1681526020019081526020015f205f9054906101000a900460ff16600381111561078e5761078d611d25565b5b146107c5576040517fea8e4eb500000000000000000000000000000000000000000000000000000000815260040160405180910390fd5b816001805490508110610804576040517fc0a8563100000000000000000000000000000000000000000000000000000000815260040160405180910390fd5b5f600184815481106108195761081861253f565b5b905f5260205f20906007020190503373ffffffffffffffffffffffffffffffffffffffff16815f015f9054906101000a900473ffffffffffffffffffffffffffffffffffffffff1673ffffffffffffffffffffffffffffffffffffffff16146108ae576040517fea8e4eb500000000000000000000000000000000000000000000000000000000815260040160405180910390fd5b8060060160089054906101000a900460ff166108f6576040517f147d7a8a00000000000000000000000000000000000000000000000000000000815260040160405180910390fd5b5f8160060160086101000a81548160ff0219169083151502179055503373ffffffffffffffffffffffffffffffffffffffff16847f225e8602d919485e9a54c796e7ceb40e6ad02e5bcc5dce07355d117713e5166c60405160405180910390a350505050565b600180600381111561097157610970611d25565b5b5f803373ffffffffffffffffffffffffffffffffffffffff1673ffffffffffffffffffffffffffffffffffffffff1681526020019081526020015f205f9054906101000a900460ff1660038111156109cc576109cb611d25565b5b14610a03576040517fea8e4eb500000000000000000000000000000000000000000000000000000000815260040160405180910390fd5b836001805490508110610a42576040517fc0a8563100000000000000000000000000000000000000000000000000000000815260040160405180910390fd5b5f60018681548110610a5757610a5661253f565b5b905f5260205f20906007020190508060060160089054906101000a900460ff16610aad576040517f73aa568200000000000000000000000000000000000000000000000000000000815260040160405180910390fd5b5f8585905003610ae9576040517f21912a6600000000000000000000000000000000000000000000000000000000815260040160405180910390fd5b5f60025f8881526020019081526020015f205f3373ffffffffffffffffffffffffffffffffffffffff1673ffffffffffffffffffffffffffffffffffffffff1681526020019081526020015f2090505f6004811115610b4b57610b4a611d25565b5b8160010160089054906101000a900460ff166004811115610b6f57610b6e611d25565b5b14610ba5576040517ea8180600000000000000000000000000000000000000000000000000000000815260040160405180910390fd5b604051806060016040528087878080601f0160208091040260200160405190810160405280939291908181526020018383808284375f81840152601f19601f8201169050808301925050505050505081526020014267ffffffffffffffff16815260200160016004811115610c1d57610c1c611d25565b5b81525060025f8981526020019081526020015f205f3373ffffffffffffffffffffffffffffffffffffffff1673ffffffffffffffffffffffffffffffffffffffff1681526020019081526020015f205f820151815f019081610c7f9190612410565b506020820151816001015f6101000a81548167ffffffffffffffff021916908367ffffffffffffffff16021790555060408201518160010160086101000a81548160ff02191690836004811115610cd957610cd8611d25565b5b021790555090505060035f8881526020019081526020015f2033908060018154018082558091505060019003905f5260205f20015f9091909190916101000a81548173ffffffffffffffffffffffffffffffffffffffff021916908373ffffffffffffffffffffffffffffffffffffffff16021790555060045f3373ffffffffffffffffffffffffffffffffffffffff1673ffffffffffffffffffffffffffffffffffffffff1681526020019081526020015f2087908060018154018082558091505060019003905f5260205f20015f90919091909150553373ffffffffffffffffffffffffffffffffffffffff16877f86ccadf68c55166a34625d00b540dd851af0e4df9d5f98a2b79930ff49a811638888604051610dfa9291906125b6565b60405180910390a350505050505050565b5f805f8373ffffffffffffffffffffffffffffffffffffffff1673ffffffffffffffffffffffffffffffffffffffff1681526020019081526020015f205f9054906101000a900460ff169050919050565b5f6003811115610e6f57610e6e611d25565b5b816003811115610e8257610e81611d25565b5b03610eb9576040517fd954416a00000000000000000000000000000000000000000000000000000000815260040160405180910390fd5b805f803373ffffffffffffffffffffffffffffffffffffffff1673ffffffffffffffffffffffffffffffffffffffff1681526020019081526020015f205f6101000a81548160ff02191690836003811115610f1757610f16611d25565b5b02179055503373ffffffffffffffffffffffffffffffffffffffff167f1e9acfe4df89a29b2be615d44fd962d8ce1fd19ff4a74ddf5a9401a6a4a2a6d282604051610f629190611d98565b60405180910390a250565b610f756118c7565b826001805490508110610fb4576040517fc0a8563100000000000000000000000000000000000000000000000000000000815260040160405180910390fd5b60025f8581526020019081526020015f205f8473ffffffffffffffffffffffffffffffffffffffff1673ffffffffffffffffffffffffffffffffffffffff1681526020019081526020015f206040518060600160405290815f8201805461101a90612243565b80601f016020809104026020016040519081016040528092919081815260200182805461104690612243565b80156110915780601f1061106857610100808354040283529160200191611091565b820191905f5260205f20905b81548152906001019060200180831161107457829003601f168201915b50505050508152602001600182015f9054906101000a900467ffffffffffffffff1667ffffffffffffffff1667ffffffffffffffff1681526020016001820160089054906101000a900460ff1660048111156110f0576110ef611d25565b5b600481111561110257611101611d25565b5b8152505091505092915050565b606060045f8373ffffffffffffffffffffffffffffffffffffffff1673ffffffffffffffffffffffffffffffffffffffff1681526020019081526020015f2080548060200260200160405190810160405280929190818152602001828054801561119657602002820191905f5260205f20905b815481526020019060010190808311611182575b50505050509050919050565b6111aa611902565b8160018054905081106111e9576040517fc0a8563100000000000000000000000000000000000000000000000000000000815260040160405180910390fd5b600183815481106111fd576111fc61253f565b5b905f5260205f209060070201604051806101000160405290815f82015f9054906101000a900473ffffffffffffffffffffffffffffffffffffffff1673ffffffffffffffffffffffffffffffffffffffff1673ffffffffffffffffffffffffffffffffffffffff16815260200160018201805461127990612243565b80601f01602080910402602001604051908101604052809291908181526020018280546112a590612243565b80156112f05780601f106112c7576101008083540402835291602001916112f0565b820191905f5260205f20905b8154815290600101906020018083116112d357829003601f168201915b5050505050815260200160028201805461130990612243565b80601f016020809104026020016040519081016040528092919081815260200182805461133590612243565b80156113805780601f1061135757610100808354040283529160200191611380565b820191905f5260205f20905b81548152906001019060200180831161136357829003601f168201915b5050505050815260200160038201805461139990612243565b80601f01602080910402602001604051908101604052809291908181526020018280546113c590612243565b80156114105780601f106113e757610100808354040283529160200191611410565b820191905f5260205f20905b8154815290600101906020018083116113f357829003601f168201915b5050505050815260200160048201805461142990612243565b80601f016020809104026020016040519081016040528092919081815260200182805461145590612243565b80156114a05780601f10611477576101008083540402835291602001916114a0565b820191905f5260205f20905b81548152906001019060200180831161148357829003601f168201915b505050505081526020016005820180546114b990612243565b80601f01602080910402602001604051908101604052809291908181526020018280546114e590612243565b80156115305780601f1061150757610100808354040283529160200191611530565b820191905f5260205f20905b81548152906001019060200180831161151357829003601f168201915b50505050508152602001600682015f9054906101000a900467ffffffffffffffff1667ffffffffffffffff1667ffffffffffffffff1681526020016006820160089054906101000a900460ff161515151581525050915050919050565b60028060038111156115a2576115a1611d25565b5b5f803373ffffffffffffffffffffffffffffffffffffffff1673ffffffffffffffffffffffffffffffffffffffff1681526020019081526020015f205f9054906101000a900460ff1660038111156115fd576115fc611d25565b5b14611634576040517fea8e4eb500000000000000000000000000000000000000000000000000000000815260040160405180910390fd5b836001805490508110611673576040517fc0a8563100000000000000000000000000000000000000000000000000000000815260040160405180910390fd5b5f600481111561168657611685611d25565b5b83600481111561169957611698611d25565b5b036116d0576040517ff525e32000000000000000000000000000000000000000000000000000000000815260040160405180910390fd5b5f600186815481106116e5576116e461253f565b5b905f5260205f20906007020190503373ffffffffffffffffffffffffffffffffffffffff16815f015f9054906101000a900473ffffffffffffffffffffffffffffffffffffffff1673ffffffffffffffffffffffffffffffffffffffff161461177a576040517fea8e4eb500000000000000000000000000000000000000000000000000000000815260040160405180910390fd5b5f60025f8881526020019081526020015f205f8773ffffffffffffffffffffffffffffffffffffffff1673ffffffffffffffffffffffffffffffffffffffff1681526020019081526020015f2090505f60048111156117dc576117db611d25565b5b8160010160089054906101000a900460ff166004811115611800576117ff611d25565b5b03611837576040517f0bcf38d900000000000000000000000000000000000000000000000000000000815260040160405180910390fd5b848160010160086101000a81548160ff0219169083600481111561185e5761185d611d25565b5b02179055508573ffffffffffffffffffffffffffffffffffffffff16877f05dcc1b13a4200fb6b8570df99308bf268e73dc5be0eb720e8cf98e02d35f730876040516118aa91906125e7565b60405180910390a350505050505050565b5f600180549050905090565b6040518060600160405280606081526020015f67ffffffffffffffff1681526020015f60048111156118fc576118fb611d25565b5b81525090565b6040518061010001604052805f73ffffffffffffffffffffffffffffffffffffffff16815260200160608152602001606081526020016060815260200160608152602001606081526020015f67ffffffffffffffff1681526020015f151581525090565b5f80fd5b5f80fd5b5f819050919050565b6119808161196e565b811461198a575f80fd5b50565b5f8135905061199b81611977565b92915050565b5f602082840312156119b6576119b5611966565b5b5f6119c38482850161198d565b91505092915050565b5f81519050919050565b5f82825260208201905092915050565b5f819050602082019050919050565b5f73ffffffffffffffffffffffffffffffffffffffff82169050919050565b5f611a1e826119f5565b9050919050565b611a2e81611a14565b82525050565b5f611a3f8383611a25565b60208301905092915050565b5f602082019050919050565b5f611a61826119cc565b611a6b81856119d6565b9350611a76836119e6565b805f5b83811015611aa6578151611a8d8882611a34565b9750611a9883611a4b565b925050600181019050611a79565b5085935050505092915050565b5f6020820190508181035f830152611acb8184611a57565b905092915050565b5f80fd5b5f80fd5b5f80fd5b5f8083601f840112611af457611af3611ad3565b5b8235905067ffffffffffffffff811115611b1157611b10611ad7565b5b602083019150836001820283011115611b2d57611b2c611adb565b5b9250929050565b5f805f805f805f805f8060a08b8d031215611b5257611b51611966565b5b5f8b013567ffffffffffffffff811115611b6f57611b6e61196a565b5b611b7b8d828e01611adf565b9a509a505060208b013567ffffffffffffffff811115611b9e57611b9d61196a565b5b611baa8d828e01611adf565b985098505060408b013567ffffffffffffffff811115611bcd57611bcc61196a565b5b611bd98d828e01611adf565b965096505060608b013567ffffffffffffffff811115611bfc57611bfb61196a565b5b611c088d828e01611adf565b945094505060808b013567ffffffffffffffff811115611c2b57611c2a61196a565b5b611c378d828e01611adf565b92509250509295989b9194979a5092959850565b611c548161196e565b82525050565b5f602082019050611c6d5f830184611c4b565b92915050565b5f805f60408486031215611c8a57611c89611966565b5b5f611c978682870161198d565b935050602084013567ffffffffffffffff811115611cb857611cb761196a565b5b611cc486828701611adf565b92509250509250925092565b611cd981611a14565b8114611ce3575f80fd5b50565b5f81359050611cf481611cd0565b92915050565b5f60208284031215611d0f57611d0e611966565b5b5f611d1c84828501611ce6565b91505092915050565b7f4e487b71000000000000000000000000000000000000000000000000000000005f52602160045260245ffd5b60048110611d6357611d62611d25565b5b50565b5f819050611d7382611d52565b919050565b5f611d8282611d66565b9050919050565b611d9281611d78565b82525050565b5f602082019050611dab5f830184611d89565b92915050565b60048110611dbd575f80fd5b50565b5f81359050611dce81611db1565b92915050565b5f60208284031215611de957611de8611966565b5b5f611df684828501611dc0565b91505092915050565b5f8060408385031215611e1557611e14611966565b5b5f611e228582860161198d565b9250506020611e3385828601611ce6565b9150509250929050565b5f81519050919050565b5f82825260208201905092915050565b5f5b83811015611e74578082015181840152602081019050611e59565b5f8484015250505050565b5f601f19601f8301169050919050565b5f611e9982611e3d565b611ea38185611e47565b9350611eb3818560208601611e57565b611ebc81611e7f565b840191505092915050565b5f67ffffffffffffffff82169050919050565b611ee381611ec7565b82525050565b60058110611efa57611ef9611d25565b5b50565b5f819050611f0a82611ee9565b919050565b5f611f1982611efd565b9050919050565b611f2981611f0f565b82525050565b5f606083015f8301518482035f860152611f498282611e8f565b9150506020830151611f5e6020860182611eda565b506040830151611f716040860182611f20565b508091505092915050565b5f6020820190508181035f830152611f948184611f2f565b905092915050565b5f81519050919050565b5f82825260208201905092915050565b5f819050602082019050919050565b611fce8161196e565b82525050565b5f611fdf8383611fc5565b60208301905092915050565b5f602082019050919050565b5f61200182611f9c565b61200b8185611fa6565b935061201683611fb6565b805f5b8381101561204657815161202d8882611fd4565b975061203883611feb565b925050600181019050612019565b5085935050505092915050565b5f6020820190508181035f83015261206b8184611ff7565b905092915050565b5f8115159050919050565b61208781612073565b82525050565b5f61010083015f8301516120a35f860182611a25565b50602083015184820360208601526120bb8282611e8f565b915050604083015184820360408601526120d58282611e8f565b915050606083015184820360608601526120ef8282611e8f565b915050608083015184820360808601526121098282611e8f565b91505060a083015184820360a08601526121238282611e8f565b91505060c083015161213860c0860182611eda565b5060e083015161214b60e086018261207e565b508091505092915050565b5f6020820190508181035f83015261216e818461208d565b905092915050565b60058110612182575f80fd5b50565b5f8135905061219381612176565b92915050565b5f805f606084860312156121b0576121af611966565b5b5f6121bd8682870161198d565b93505060206121ce86828701611ce6565b92505060406121df86828701612185565b9150509250925092565b7f4e487b71000000000000000000000000000000000000000000000000000000005f52604160045260245ffd5b7f4e487b71000000000000000000000000000000000000000000000000000000005f52602260045260245ffd5b5f600282049050600182168061225a57607f821691505b60208210810361226d5761226c612216565b5b50919050565b5f819050815f5260205f209050919050565b5f6020601f8301049050919050565b5f82821b905092915050565b5f600883026122cf7fffffffffffffffffffffffffffffffffffffffffffffffffffffffffffffffff82612294565b6122d98683612294565b95508019841693508086168417925050509392505050565b5f819050919050565b5f61231461230f61230a8461196e565b6122f1565b61196e565b9050919050565b5f819050919050565b61232d836122fa565b6123416123398261231b565b8484546122a0565b825550505050565b5f90565b612355612349565b612360818484612324565b505050565b5b81811015612383576123785f8261234d565b600181019050612366565b5050565b601f8211156123c85761239981612273565b6123a284612285565b810160208510156123b1578190505b6123c56123bd85612285565b830182612365565b50505b505050565b5f82821c905092915050565b5f6123e85f19846008026123cd565b1980831691505092915050565b5f61240083836123d9565b9150826002028217905092915050565b61241982611e3d565b67ffffffffffffffff811115612432576124316121e9565b5b61243c8254612243565b612447828285612387565b5f60209050601f831160018114612478575f8415612466578287015190505b61247085826123f5565b8655506124d7565b601f19841661248686612273565b5f5b828110156124ad57848901518255600182019150602085019450602081019050612488565b868310156124ca57848901516124c6601f8916826123d9565b8355505b6001600288020188555050505b505050505050565b7f4e487b71000000000000000000000000000000000000000000000000000000005f52601160045260245ffd5b5f6125168261196e565b91506125218361196e565b9250828203905081811115612539576125386124df565b5b92915050565b7f4e487b71000000000000000000000000000000000000000000000000000000005f52603260045260245ffd5b5f82825260208201905092915050565b828183375f83830152505050565b5f612595838561256c565b93506125a283858461257c565b6125ab83611e7f565b840190509392505050565b5f6020820190508181035f8301526125cf81848661258a565b90509392505050565b6125e181611f0f565b82525050565b5f6020820190506125fa5f8301846125d8565b9291505056fea2646970667358221220d742a98f9c35e742dbfb7fcb8814fbb7ec46845aab02f926c86136b3024ab69f64736f6c63430008180033",
  "linkReferences": {},
  "deployedLinkReferences": {},
  "immutableReferences": {},
  "inputSourceName": "project/contracts/JobPortal.sol",
  "buildInfoId": "solc-0_8_24-7aea07f275e2b49d0f5975fc3be348de268f8e0d"
}